:020000040800F2
:10000000C00C0020B902000885390008053400083A
:100010006D39000889310008854F00080000000094
:10002000000000000000000000000000D54A0008A9
:10003000A131000800000000B53F0008494E00084B
:10004000D3020008D3020008D3020008D30200083C
:10005000D3020008D3020008D3020008D30200082C
:10006000D3020008D3020008D3020008D30200081C
:10007000D3020008D3020008D3020008D30200080C
:10008000D3020008D3020008D3020008D3020008FC
:10009000D3020008D3020008D3020008A5310008EB
:1000A000D3020008D3020008D3020008D3020008DC
:1000B000D3020008D3020008D3020008D3020008CC
:1000C000D3020008D3020008D3020008D3020008BC
:1000D000D3020008094F0008D3020008D302000829
:1000E000A3310008D3020008D3020008000000007A
:1000F0000000000000000000000000000000000000
:1001000000000000D3020008D30200080000000035
:10011000D3020008D3020008000000000000000025
:10012000D3020008D3020008D3020008D30200085B
:1001300000000000000000000000000000000000BF
:10014000000000000000000000000000D3020008D2
:100150000000000000000000D3020008D3020008E5
:10016000000000000000000000000000D3020008B2
:1001700000F002F800F090F80AA090E8000C824429
:100180008344AAF10107DA4501D100F085F8AFF206
:10019000090EBAE80F0013F0010F18BFFB1A43F065
:1001A00001031847A8780000C8780000103A24BF5F
:1001B00078C878C1FAD8520724BF30C830C144BFCC
:1001C00004680C607047000000230024002500260E
:1001D000103A28BF78C1FBD8520728BF30C148BFAA
:1001E0000B6070476E2900F08184702900F0C38590
:1001F000662907F0E180652907F0DE80672907F0AE
:10020000DB80612907F0DA8003681B0A28BF41F010
:100210008001692900F02E84642900F02B8475295F
:1002200000F028846F2900F05085782900F08F8530
:10023000E92900F0EB84E42900F0E884F52900F0D6
:10024000E584EF2900F04D85F82900F08E850368DC
:10025000DB0928BF41F08001632901F0A1857329E2
:1002600001F0A685E32901F0B185F32901F0B685F7
:10027000002070471FB501F051F904000020002153
:1002800006F082FA401C60600020002106F066FA49
:10029000E0601FBD10B510BD02F040F81146FFF739
:1002A000E9FF05F001FF02F0C9FA03B4FFF7F2FF1E
:1002B00003BC02F0DFFA0000094880470948004704
:1002C000FEE7FEE7FEE7FEE7FEE7FEE7FEE7FEE706
:1002D000FEE7FEE704480549054A064B7047000063
:1002E0006D4E000871010008C0060020C00C0020FF
:1002F000C0080020C008002053EA020C00F069800A
:100300002DE9F04B4FF00006002B1FBFB3FA83F529
:1003100003FA05F424FA05F65E4012BF1643B2FA5A
:1003200082F502FA05F4C5F120051EBF22FA05FC8C
:1003300044EA0C04203556EA044C4FEA144418BF32
:10034000641C4FF000084FF00009904271EB030C61
:1003500039D3002919BFB1FA81F701FA07F6B0FACB
:1003600080F700FA07F6C7F120071EBF20FA07FC46
:1003700046EA0C062037B6FBF4FCA7EB0507103F56
:1003800007F01F0BCBF120060CFA0BFB2CFA06F63C
:1003900044BFB3460026202FA4BF5E464FF0000B9B
:1003A0005BEA060C08BF4FF0010B19EB0B09ABFB26
:1003B000027C48EB0608C01B06FB02CC0BFB03CCFF
:1003C00071EB0C01C1E70B46024641464846BDE8C9
:1003D000F08B13B54FF000004FF00001AFF3008039
:1003E000BDE81C40704700001CB50C46064B7B4422
:1003F00069460090204600F092FB044600206946C2
:1004000000F0A0FB20461CBD530700000FB400B550
:100410008DB010A9099000910B904FF0FF300A9019
:1004200000200C90064878440690064878446A46B6
:1004300007900F9909A800F0FDFF0DB05DF814FBBF
:100440002B100000431000002DE9FF5F1D464FF008
:10045000FF3B91464FF000085F46D5E90146A96988
:1004600001987F1C8847296A824688470028F6D170
:10047000BAF1FF3F0CD0002E24F4C06419DD6006F1
:1004800014D5BAF12B0F09D0BAF12D0F0ED103E01C
:10049000584604B0BDE8F09F44F48064A96901980F
:1004A0007F1C8847761E8246002E02DDBAF1300F8F
:1004B00003D0B9F1000F26D032E0A969761E019869
:1004C0007F1C44F400748847002E824605DDBAF193
:1004D000780F06D0BAF1580F03D0B9F1000F10D041
:1004E0001EE0B9F1000F02D0B9F1100F18D1A969BF
:1004F000761E01987F1C24F40074884782461020E1
:1005000002E0082000E00A20814609E0A96908FB12
:100510000908761E01987F1C44F4007488478246BF
:10052000002E05DD4946504600F0F4FC0028EDDAC7
:10053000E96901988847A00502D46FF00100A8E797
:10054000E00725D1600613D5600502D5C8F100008B
:1005500000E0404629680A1D2A600968220501D585
:10056000087015E0220701D5088011E008600FE04F
:100570002868011D29600068210502D580F80080E7
:1005800006E0210702D5A0F8008001E0C0F8008055
:1005900038467EE72DE9FF5F4FF000089946144684
:1005A00046469169D2E901A7DDF838B0019888473D
:1005B000054659EA0B0005D009E0A1690198761CAF
:1005C00088470546216A284688470028F5D1681CD7
:1005D00003D05FEACA7005D015E04FF0FF3004B0D9
:1005E000BDE8F09F2068011D2160D0F800800AE07E
:1005F0005FEACA7001D108F8015BA169761C019815
:100600007F1E88470546002F1ADD681C18D0B9F1F7
:10061000000F0DD0E81705EBD060421120F01F004D
:1006200059F822102A1A012090400142E0D107E037
:10063000BBF1000FDCD12846216A88470028D7D0BB
:10064000E16901988847BBF1000F07D1002E05DD55
:100650005FEACA7002D1002188F80010A068B84291
:1006600003DDBBF1000F03D017B16FF00100B6E757
:100670003046B4E770B5064600F08AF904680546CE
:1006800030460A22002100F005FF2C6070BD30B515
:1006900005460B462A4613F8014B12F8010B08B128
:1006A000A042F8D01CB1002802D06D1CF1E728460A
:1006B00030BD10B5431C02E010F8011B71B1810779
:1006C000FAD14FF0013202C88C1A8C4314EAC211DD
:1006D000F9D0C01A0A0603D0C01E10BDC01A10BD42
:1006E0000A0401D0801E10BD0902FCD0401E10BDBE
:1006F00040EA010370B59B072ED14FF00136042A62
:100700002AD308C810C99D1B9D43121F15EAC615A0
:1007100017D0D8B2E1B2401A50EA056110D198B2B0
:10072000A1B2401A50EA05410AD123F07F4024F0DB
:100730007F41401A50EA052102D1180EA0EB146047
:1007400070BDA342DBD018BA21BA884201D901207A
:1007500070BD4FF0FF3070BD0AB9002070BD10F8B9
:10076000013B11F8014B63B1A3420AD1521E08D0DC
:1007700010F8013B11F8014B1BB1A34201D1521EED
:10078000EDD1181B70BD032A40F2308010F0030C2D
:1007900000F0158011F8013BBCF1020F624498BFD4
:1007A00011F801CB00F8013B38BF11F8013BA2F171
:1007B000040298BF00F801CB38BF00F8013B11F0EC
:1007C000030300F02580083AC0F0088051F8043B8C
:1007D000083A51F804CBA0E80810F5E7121D5CBFF9
:1007E00051F8043B40F8043BAFF30080D20724BF2C
:1007F00011F8013B11F801CB48BF11F8012B24BFC0
:1008000000F8013B00F801CB48BF00F8012B70470E
:1008100010B5203AC0F00B80B1E81850203AA0E89B
:100820001850B1E81850A0E81850BFF4F5AF5FEACF
:10083000027C24BFB1E81850A0E8185044BF18C982
:1008400018C0BDE810405FEA827C24BF51F8043B29
:1008500040F8043B08BF7047D20728BF31F8023B7D
:1008600048BF11F8012B28BF20F8023B48BF00F811
:10087000012B70474FF000020429C0F0128010F0E5
:10088000030C00F01B80CCF1040CBCF1020F18BF6C
:1008900000F8012BA8BF20F8022BA1EB0C0100F0FF
:1008A0000DB85FEAC17C24BF00F8012B00F8012BD2
:1008B00048BF00F8012B70474FF0000200B5134607
:1008C00094469646203922BFA0E80C50A0E80C5070
:1008D000B1F12001BFF4F7AF090728BFA0E80C5021
:1008E00048BF0CC05DF804EB890028BF40F8042B1A
:1008F00008BF704748BF20F8022B11F0804F18BF87
:1009000000F8012B704700004FF0013C50F8042B19
:1009100051F8043B9A4221D1A2EB0C03934313EA12
:10092000CC1317D150F8042B51F8043B9A4215D13F
:10093000A2EB0C03934313EACC130BD150F8042B16
:1009400051F8043B9A4209D1A2EB0C03934313EAFA
:10095000CC13DBD04FF00000704700BFD01A01BAB3
:10096000B1FA81F101F0180122FA01F0CB40C1F196
:100970002001DBB2C0B2C01A2CFA01F3D11A9143A4
:1009800011EAC311E6D17047704770477047000005
:10099000004870476006002010B5FFF7F9FF0068B7
:1009A00010BD10B50446FFF7F3FF046010BD70B52D
:1009B000044685690068C10601D5302600E020267E
:1009C000C00707D070BDD4E9012130469047206AA6
:1009D000401C20626D1EF6D570BD70B50446856959
:1009E0000078C00707D170BDD4E9012120209047CD
:1009F000206A401C20626D1EF6D570BD09684A054C
:100A000001D540B27047C905FCD500B270470968EE
:100A10004A0501D5C0B27047C905FCD580B2704700
:100A200070B50C460546012A05D02878800600D509
:100A3000EA69002302E0012305E05B1C934202D235
:100A4000E05C0028F9D1A869E618C01AA861286AF4
:100A5000184428622846FFF7AAFF04E0D5E90121DF
:100A600014F8010B9047B442F8D32846FFF7B5FFBE
:100A700070BD00002DE9F04106460024106875297C
:100A8000314616A510D0FFF7B9FF002802DA404220
:100A900013A507E031688A0701D512A502E04907CE
:100AA00004D511A5012401E0FFF7B1FF00210A22BE
:100AB00006F1240709E0B0FBF2FCB0FBF2F302FB05
:100AC0001C00303078541846491C0028F3D12346C6
:100AD0002A463046BDE8F04100F072BD000000003B
:100AE0002D0000002B0000002000000011680268AB
:100AF000006A530501D508700AE0D30501D50880C6
:100B000006E0130603D5C217C1E9000200E0086041
:100B10000120704701694A1C02610878704700B5DE
:100B20008FB0CDE901310021059105497944CDE926
:100B300003101146684600F029F90FB000BD00000F
:100B4000E5FFFFFF0A6802F8010B0A60704700002A
:100B50002DE9FF5F15468A460446DFF8AC80F8446D
:100B60000027D8E900103E46CDE9001010E03AF821
:100B700016106A4602A801F0B1FB411C07D021788B
:100B8000890603D5E269391891420DD80744761CCD
:100B90002078800602D5E069B84205DDAE42E6DB8A
:100BA0003AF816000028E2D1A069C01BA0612046D7
:100BB000FFF7FDFED8E90010CDE90010002017E096
:100BC0003AF818106A4602A801F088FBB0F1FF3F1E
:100BD00081460BD000250DF1080B05E0D4E9012179
:100BE0001BF8050090476D1C4D45F7D308F1010037
:100BF000B0428046E4DB206A384420622046FFF79A
:100C0000ECFEBDE8FF9F0000266A00002DE9F041E0
:100C10008046D21D22F007020025D2E90002F52904
:100C200015A614D0011E72F1000106DA0023D0EBE4
:100C3000030063EB020211A608E0D8F800108B074E
:100C400001D50FA602E0490701D50EA601251146E0
:100C5000002408F1240704E000F064FC30323A5527
:100C6000641C50EA0102F7D12B4632462146404629
:100C7000BDE8F04100F0A4BC000000002D00000021
:100C80002B0000002000000030B4002100F12404FB
:100C900008E002F00705D208303542EA4372DB086B
:100CA0006554491C52EA0305F3D10468002310A2DD
:100CB000250707D5A40600D421B1C46901230DA2DC
:100CC000641EC46130BC00F07BBC10B504462146F4
:100CD0001068FFF79CFE02462046BDE81040002346
:100CE000D2E7D21D22F00701D1E90023CCE70000B2
:100CF0000000000030000000F0B40D460188090536
:100D000002D5214C7C4402E01F4C7C440E3400216F
:100D100000F1240608E002F00F071209E75D42EA3D
:100D200003721B097754491C52EA0307F3D1027876
:100D30000023120704D5702D06D009B10223113407
:100D40002246F0BC00F03CBC01231034F8E770B53B
:100D500004460D4621461068FFF759FE0246294613
:100D60002046BDE870400023C6E7D21D22F00703ED
:100D7000D3E90023C0E70368126843F0200303604F
:100D80000823C3610023B7E7886800002DE9F05FFE
:100D9000894604464FF0000ADFF874B1FB44C0F8FE
:100DA00020A02046E1688847002874D0252806D076
:100DB000D4E901219047206A401C2062F1E7002617
:100DC0005F462046E16888472028054607DB312D2D
:100DD00005D2781910F8200C08B10643F1E7B007E6
:100DE00001D526F00406C4F81CA00027C4F818A0FA
:100DF0002A2D09D0284604F066F938B304EB870899
:100E0000303DC8F8185019E059F8041B204604EB8F
:100E100087029161E1688847012F054618D1E06992
:100E2000002820DA26F020061DE0D8F8180000EB94
:100E3000800005EB40003038C8F818002046E16813
:100E40008847054604F03FF90028EED1012F0AD06B
:100E50002E2D08D12046E16888477F1C0546022FC9
:100E600046F02006C4DBA069002803DA404246F0C1
:100E70000106A061F00701D026F010066C2D0BD002
:100E8000682D09D04C2D39D06A2D35D0742D35D030
:100E90007A2D33D016E038E0E1682F4620468847A7
:100EA000B842054609D16C2F26D04FF48060E16826
:100EB000064320468847054604E06C2F1AD04FF4BD
:100EC000807006430DB3A5F14100192802D82035E2
:100ED00046F400664A462946204626604E46FFF7FD
:100EE00081F980B101280BD0F61D26F0070000F132
:100EF000080956E74020E4E78020D8E70020D6E73D
:100F000006F104094DE7284652E7206ABDE8F09F44
:100F1000186800003A2800D2303820F02002412A18
:100F200001D3A2F13700884201D34FF0FF30704760
:100F30002DE9FF4F06468BB00878FF2806D0491CE4
:100F40002D2805D000244FF0000908E000200CE017
:100F50000124F8E709EB8903491C00EB43090878F1
:100F6000FF28F7D114B1C9F100008146107800259F
:100F70002C46AA4629462D2801D02B2804D1521CE4
:100F80002D2813D0002082468B461078FF280FD0E2
:100F90004FF0000C0A21521CA5FB017804FB0181D3
:100FA00005FB0C11C5194BEB0104EEE70120EAE744
:100FB000002108464FF00000BAF1000F02D000EB0C
:100FC00080004008C0F38157012F01DD4FF0FF374B
:100FD0000E9955EA040009EB01080BD04FF0020905
:100FE00018F5FA7F16DA4FEACA70002F706008DD34
:100FF000012007E04FEACA70C6E900B00FB0BDE8B3
:10100000F08F00203060FFF7C3FCC0F8009018217B
:10101000084616E0B8F5FA7F18DD002F02DAF74827
:10102000784401E0F6487844D0E90010C6E90010A1
:1010300040EACA707060FFF7ABFCC0F80090142162
:1010400008460FB0BDE8F04F06F0B3B900210846DE
:101050004FF00000B8F10001099002DAC7F1000278
:1010600000E03A4601DAC8F1000106A801F0C4F830
:1010700006AB93E8070003AB83E8070044F23E00A9
:101080005BEA04010090584604D144F21E012C464C
:101090005D460091210C0904014306D10099240406
:1010A00044EA15442D041039009104F07F410143B6
:1010B00006D10099240244EA15642D0208390091F2
:1010C00004F07041014306D10099240144EA1574EB
:1010D0002D01091F009104F04041014306D1009900
:1010E000A40044EA9574AD00891E009104F000410B
:1010F000084304D100986D196441401E00904FF0E0
:1011000001033A466846B8F1000FCDE9014503A94D
:1011100002DD01F0B4FE01E001F087FEBAF1000F3C
:1011200004460D4601D084F00044002108464FF0EB
:101130000000099940F2FF77484010F00C0F07D1EA
:1011400024F00040284303D0C4F30A50B84212D11F
:10115000FFF71EFCC0F80090C4F30A50B8420AD151
:10116000A8487844D0E90010C6E9001004F0004116
:101170000843706042E7C6E900543FE72DE9FF4F9E
:101180001F464FF0000A4FF0FF38454691B0D7E9AF
:101190000146CDF83CA000F0C1F9C0680168405C90
:1011A0001090B96912986D1C8847396A8146884742
:1011B0000028F6D1B9F1FF3F0AD0002E24F4D06404
:1011C00011DDB9F12B0F08D0B9F12D0F0BD102E0D1
:1011D000404615B013E744F48064B96912986D1C59
:1011E0008847761E8146600504A901D52D2000E0C0
:1011F0002B20002E01F1010B0DF130088DF81000AD
:101200003FDDB9F1690F08D0B9F1490F05D0B9F147
:101210006E0F02D0B9F14E0F1CD13B4601A80095CC
:1012200080E85002DDE912126FF0020006F02CF99E
:10123000C11CCED10EE0B96912986D1C8847814659
:101240001398761E44F4007405600F98401C002E1D
:101250000F9016DDB9F1300FEDD0B9F1780F02D053
:10126000B9F1580F0DD10F9801280AD13B46CDE9AD
:101270000054DDE91212001F029606F003F9C11CAA
:10128000A7D1109989453ED144F0800406E0139916
:10129000681CAAF1010A44F400740860B9696D1C65
:1012A0001298761E884730288146F0D02BE010999E
:1012B000894505D1200603D4761E44F0800418E049
:1012C000484603F000FF08B3761E0DF123018B455D
:1012D00044F4007408D2A9F130000BF8010B200689
:1012E00007D5AAF1010003E0200602D40AF10100AB
:1012F0008246A00502D51399681C0860B969129846
:101300006D1C88478146002ED1DC53E0002E51DD54
:10131000B9F1650F02D0B9F1450F4BD1A00549D500
:10132000B9696D1C1298761E24F440748847002E0B
:1013300081460CDD2B2804D0B9F12D0F07D144F4E0
:101340008074B96912986D1C8847761E8146E00545
:1013500001D52D2100E02B2108F8011BCDF80080DC
:1013600021E0761E0DF13901884544F400740CD259
:10137000A9F1300010F0FF0088F8000002D10099B8
:10138000884509D908F1010806E0E00501D51E48A5
:1013900001E042F20F708246B96912986D1C8847CD
:1013A000814613980560002E04DD484603F08BFE4D
:1013B0000028D6D1F96912988847FF2053468BF848
:1013C000000088F8000000200A900B9004AA0CA9E5
:1013D0000AA8FFF7ADFDA00502D46FF00100F8E602
:1013E00014F0240F12D0E0071CD13868DDE90A128E
:1013F000031D3B600068C0E9001213E0506A000062
:10140000426A000006690000F1D8FFFF0AA9684699
:1014100003F0E8FDE00705D13868009A011D396046
:10142000006802602846D4E602681144137801601F
:1014300018467047D160054979445161044979449F
:10144000116200211161114600F0CCBCEDFFFFFFDD
:101450006D010000426842B1016811F8013B23B1FF
:10146000521EC0E90012184670470121C160881E53
:10147000704742685AB1C368016843B983688B42B8
:1014800005D0491E521CC0E90012002070474FF0E1
:10149000FF3070472DE9F04791460F4680460446DD
:1014A000002614F8015B2DB100F030F80068405DB3
:1014B000C007F6D12B2D02D02D2D18D0641E4A4620
:1014C0003946204600F048FE27B13968A14201D1D3
:1014D000C7F800804FF0020471050BD54042002888
:1014E00003DDFFF755FA0460A007BDE8F08746F476
:1014F0008066E4E70028F8DAFFF74AFA04606FF044
:101500000040F2E7004870476006002010B500F088
:1015100005F8001D10BD00BF715200000048704763
:101520008006002030B5B0F10A024FEA900E71F14A
:1015300000034EEA817EB0EB0E0061EB91014FEAB1
:10154000101E4EEA017E10EB0E0041EB11114FEA26
:10155000102E4EEA016E10EB0E0041EB11214FEA06
:10156000104E4EEA014E10EB0E0041EB11414018B7
:1015700041F100014FEAD00040EA41704FEAD10149
:1015800010EB80054FEA810444EA907444EB0104B7
:101590006D1944EB0404521BA3414FF0000348BFF4
:1015A0000A3200D530BD401C41F1000130BD10B5FC
:1015B0000446FFF7ABFF0068005D00F0010010BDBE
:1015C0002DE9F0470D4699469246044600F124085D
:1015D0000168880604D5E06921F01001216000E06F
:1015E0000120A84201DD471B00E00027A1697A190C
:1015F00002EB0900081AA0612078C00602D4204638
:10160000FFF7D5F9002608E0D4E901211AF8060011
:101610009047206A401C761C20624E45F4DB2078FF
:10162000C0060AD52046FFF7C2F906E0D4E9012139
:1016300030209047206A401C2062381EA7F1010725
:10164000F4DC07E0D4E9012118F805009047206A8E
:10165000401C2062281EA5F10105F3DC2046FFF79F
:10166000BCF92078000602D50220BDE8F0870120F1
:10167000FBE770472DE9FF4F0C461E464FF0FF3742
:101680008BB0D2E90001DDF860800A908A46C1F390
:101690000A5505B93D46002108464FF00000BAF151
:1016A000000F00F4400005DA00EB80004FF4400129
:1016B00001EA50004FEA9059B9F1010F00DDB94637
:1016C0000A9850EA4A000ED044F61050A5F2FF35B1
:1016D00045432F14B8F1000F1ED07542291E1EDDA0
:1016E000C9F100021CE0B8F1010F4FF0000001D079
:1016F000302103E0F24305E02154401CB042FBDB03
:1017000030460022002121540B99C1F80880C1E91C
:1017100000200FB0BDE8F08FBD1B6D1CDEE74A4610
:1017200000DA694206A800F067FD06AB93E80700FF
:1017300003AB83E8070050460A9901F0A2F88DE850
:101740000700A0F500501F3800900398002D0ADD17
:1017500042F21F014A460844002303A90390684649
:1017600001F04EFB09E0A0F500504A461F38002367
:1017700003A90390684601F06DFB8DE807000004A3
:10178000000C03D04FF0FF30410800E01046B8F1E4
:10179000000F03D00022009215461EE0751E05D4EE
:1017A000FFF7C0FE303262556D1EF9D5B3460122F7
:1017B000084302D000227F1C04E02078302801D1A9
:1017C00000227F1E002A099784D01DE0112D07DA20
:1017D000FFF7A8FE303262556D1C50EA0102F5D1C8
:1017E000084302D00098C8B10EE00021681E05E051
:1017F000235C625C63542254401E491C8142F7DB27
:10180000AB46A81B401E0990002004F80B000B9863
:10181000099AC0F80880C0E9002B7AE711264FF03A
:10182000000857E72DE9F04F88460446D21D22F004
:10183000070191B0D1E90001CDE90A0103F0AEFB47
:1018400002460B98C00F01D02D2007E020688107C9
:1018500001D52B2002E0202101EAC000032A0990D3
:1018600001D0072A05DB03464146204600F07CFDF7
:101870000BE12078800601D5E06900E00620B8F190
:10188000650F814606D0B8F1660F18D0B8F1670F22
:1018900070D131E00020B9F1110F009001DB11236C
:1018A00001E009F101030AAA01A90CA8FFF7E2FE71
:1018B000DDE90C70002609F10105834647E00120AF
:1018C0004B4600904FF000470AAA01A90CA8FFF769
:1018D000D1FEDDE90DB00C995D46002610B909F185
:1018E00001000D18B9EB050003D4C0F1FF3609F172
:1018F0000105A5EB09002BE0B9F1010F01DA4FF06A
:1019000001090020B9F1110F0090484601DD1123B3
:1019100000E003460AAA01A90CA8FFF7ABFEDDE927
:101920000C704D4600268346207800070AD4AB454C
:1019300000DA5D4601A8012D04DD411911F8011CF2
:10194000302907D04F4502DA17F1040F04DA0120DD
:1019500082460FE06D1EEEE7002F02DCED1B3E44D9
:1019600003E0781CA84200DD7D1CB81B00F1010AD1
:101970004FF000472078000703D4AA4501DB4FF061
:10198000FF3A0021B7F1004F0DF143088DF84310E5
:1019900024D002202B23002F01DA7F422D230A219D
:1019A000021EA0F1010000DC5FB197FBF1FC97FB88
:1019B000F1F201FB1C7C17460CF1300C08F801CD4C
:1019C000EEE7A8F1010003702188090501D5452142
:1019D00000E06521A0F1010800F8011C09980FA999
:1019E000A1EB0807FF1D00B10120411901EBEA70CE
:1019F000A1693844081A401EA0612078C00602D4AC
:101A00002046FEF7D4FF099828B1D4E90121904778
:101A1000206A401C20622078C00622D52046FEF7AE
:101A2000C6FF1EE0002E04DBB34502DD01A8805D89
:101A300000E03020D4E901219047206A401C206258
:101A4000761CAAF101005FEA000A0AD1FFF766FDE1
:101A5000C0680168405CD4E901219047206A401CBD
:101A60002062281EA5F10105DCDC07E0D4E9012194
:101A700018F8010B9047206A401C2062381EA7F11D
:101A80000107F3DC2046FEF7A8FF032011B041E672
:101A90002DE9F04F04460D46D21D22F0070089B013
:101AA000D0E900974846394603F078FA0246F80F25
:101AB00001D02D2307E02068810701D52B2302E008
:101AC000202101EAC0038DF820300BB1012000E095
:101AD0000020032A824601D0072A04DB294620463B
:101AE00000F042FC3FE12078800601D40D2500E0A3
:101AF000E569C7F30A560D2D49DA00214FEA175B55
:101B000008464FF00000002F00F4400007DA00EB19
:101B100080004FF4400100EBD07001EA60008115B5
:101B2000012901DD4FF0FF3100224FEA850CBCF1A5
:101B3000180F06D31346ACF118004FF08052C24084
:101B400003E04FF4801323FA0CF30CF10C0CBCF1FE
:101B5000200F04D3ACF1200C09FA0CF001E007FAD5
:101B60000CF000294FF0004801DD18B90FE00ED14C
:101B700040450CD319EB02095F4121B9404502D120
:101B80009F4329EA0209BBEB175F00D0761C20882F
:101B9000000502D57B48784402E07A487844193839
:101BA00008AA302302F80A30037C0AF10101002E52
:101BB0000AF1020A53546A4602DC4FF0300101E098
:101BC0004FF031014FF001088DF8001002D0A6F25D
:101BD000FF3603E059EA470100D06B4E002D02DCCE
:101BE0002178090704D54FF002082E218DF8011045
:101BF000C44600210BE0C7F303433F01C35C491C0B
:101C00006D1E02F80830052908F1010801DA002DDF
:101C1000F1DC00210CE000EB1973491C1B786D1EF0
:101C2000082902F808304FEA091908F1010801DA19
:101C3000002DF0DC21688B0602D516E0A8F1010822
:101C4000E04505DD02EB080313F8013C302BF5D02D
:101C5000B8F1000F09DD02EB080313F8013C2E2B4D
:101C600003D1090701D4A8F10108002D05DD3E21AB
:101C700002F808106D1E08F10108407C002E02F8E1
:101C8000080008F1010804DA2D20764202F8080065
:101C900002E02B2002F808000A214FF47A708642F5
:101CA00008F101080BDB96FBF0F3303302F8083043
:101CB00096FBF0F308F1010800FB136601E0642EC7
:101CC0000CDB642096FBF0F3303302F8083096FB0F
:101CD000F0F308F1010800FB136601E00A2E06DBB1
:101CE00096FBF1F0303002F8080008F1010896FB8D
:101CF000F1F001FB1060303002F80800A16908F132
:101D0000010808EB050202EB0A00081AA06120781E
:101D1000C00602D42046FEF74AFE216A08AE01EB57
:101D20000A00206204E0D4E9012116F8010B904773
:101D3000BAF1010AF7D22078C00602D52046FEF794
:101D400036FE6E4609E016F8010B3E280FD0D4E9A6
:101D500001219047206A401C2062B8F10108F2D2AC
:101D60002046FEF73AFE09B00320BDE8F08F206A56
:101D70002844206203E0D4E90121302090476D1E01
:101D8000EBD3F8E7425A000002FCFFFF10B54369AD
:101D900013B1AFF3008001E0FEF742FE012010BD59
:101DA000127800F124010A7000224A700122EDE746
:101DB00011684FF0FF32E9E710B5436913B1AFF393
:101DC000008001E0FEF7C4FE012010BD128800F182
:101DD000240182840022C2840122EDE711684FF0C1
:101DE000FF32E9E72DE9F34F4FF0000A0C46564663
:101DF0008DB001200C9001F10C000B9062690B98E2
:101E000001219047051E2DD0252D2CD0216A884711
:101E1000C0B162690B9801219047216A8847002868
:101E2000F7D16269411E0B98904700E0761CA169CA
:101E30000D988847216A88470028F7D1E1690D98F5
:101E40008847DBE7A1690D988847A842074601D17A
:101E5000761CD3E7E1690D9888477F1C02D1BAF15F
:101E6000000F6FD06BE162690B9800273D46394641
:101E700090472A2804D162690B98012190470125D7
:101E8000DFF8D08262690B9801219047A0F1300100
:101E90000A290AD24745E5DC07EB870100EB410739
:101EA000303FDFD445F01005ECE7E90601D46FF0D0
:101EB00000476C280AD04C2814D0682815D06A280E
:101EC0000DD074281CD07A281AD01DE062690B98B6
:101ED000012190476C2802D045F0040514E045F03C
:101EE00002050DE045F020050AE062690B9801212A
:101EF0009047682802D045F0080505E045F40065E4
:101F000062690B9801219047C4E9015765283DD0CB
:101F100019DC58287AD00CDC452837D004DC252879
:101F200026D041289ED131E046282FD0472899D18C
:101F30002CE05B2877D0612828D063287CD06428E7
:101F400023D15AE0F6E06F2848D008DC66281DD07F
:101F500067281BD0692821D06E2816D127E0702869
:101F600045D0732868D0752847D078280DD14DE02A
:101F7000A1690D988847252805463FF469AFE169B6
:101F80000D9888476D1C3FF46AAFD8E00D99234641
:101F90006A466FF0010005F073FAC5E045F04000B5
:101FA00023464FF000026060A80736D43EE0E80701
:101FB0007FF447AF2068011D21600068290501D525
:101FC00006701BE7290701D5068017E7A90703D587
:101FD000F117C0E9006111E706600FE745F0400026
:101FE00023464FF008026060A80716D41EE040F6B2
:101FF0000E0125EA0100606016E045F0400023462E
:102000004FF00A026060A80707D40FE045F04000D7
:102010006060A80708D5234610220D996FF00100D3
:10202000AFF3008080E007E0102223460D996FF0A7
:102030000100FEF709FA77E04FF0000963284F46E8
:10204000C8464B46CB4602D05B2806D038E0E806AF
:1020500001D40120A060012732E06269D4F80CB0FD
:102060000B98012190475E2807D14FF0010949469E
:102070006269D4F80CB00B989047216939B90021F6
:102080000A4603AB43F82120491C0829FADBD8B3E0
:10209000216949B308F1010862690B980121904751
:1020A0005D28F4D1B9F1000F09D0002003A951F83F
:1020B0002020D24341F82020401C0828F7DB03AB46
:1020C0002069002820794FEA40701ED05B462246E6
:1020D000CDF80080CDE901970D9900286FF001003F
:1020E00020DAAFF300801FE0C11703AA00EBD16133
:1020F0004B1121F01F0102EB8302411A13680120EA
:10210000884003431360C7E719E00D992246002871
:102110006FF00100009702DAAFF3008004E0FEF7F1
:1021200039FA01E0AFF3008000280ADA401C06D13A
:102130000C9820B14FF0FF300FB0BDE8F08F504643
:10214000FAE7E90701D10AF1010A064400200C90E0
:1021500054E60000CCCCCC0C2DE9F05F824615464D
:102160008B4600270AF10104B9460078302801D0D7
:102170009DB113E014F8010B0127782803D05828EB
:1021800001D045B10AE00DB1102D07D1002714F898
:10219000010B102502E0082500E00A250026B046C4
:1021A0000EE005FB080005FB06F101271FFA80F889
:1021B00001EB1046B6F5803F00D3B94614F8010B89
:1021C0002946FEF7A7FE0028EBDABBF1000F05D089
:1021D0000FB1641E00E05446CBF80040B9F1000F87
:1021E00006D0FEF7D5FB02210160C81EBDE8F09FB6
:1021F00048EA0640FAE700002DE9F0478146164616
:102200008AB0354878440DC88DE80D0032487844CE
:10221000801C03AC0DC884E80D0041F69B300844D7
:10222000372190FBF1F290FBF1F5A5F1800501FB60
:1022300012041B3C02D56442012000E00020DFF8BC
:1022400098A080460027FA44AAF1BE0A0EE0E007F3
:102250000AD03246684607EB470101230AEB8101A9
:1022600000F0F8FD8DE8070064107F1C002CEED113
:10227000194F7F44AE3F19E0E80715D007EB041073
:102280000DF1180A90E80E008AE80E00C068F042CE
:1022900001D1981908903246012306A903A800F03D
:1022A000D9FD03AB83E807006D10641C002DE3D15A
:1022B0004FF0010332466946B8F1000F03A802D07F
:1022C00000F09EFD01E000F0C5FDC9E90001C9F87C
:1022D00008200AB0BDE8F0876454000070B51646C7
:1022E0000C460546FFF712F9036893F8010101282F
:1022F00006D0FF2C0FD8185D68B101202C7070BD7E
:10230000D3F807013246214603F207130344284657
:10231000BDE8704018474FF0FF3070BD7546FFF7BD
:10232000F1F8AE4605006946534620F007008546A1
:1023300018B020B5FDF7CEFFBDE820404FF00006F5
:102340004FF000074FF000084FF0000B21F007019D
:10235000AC46ACE8C009ACE8C009ACE8C009ACE8E0
:10236000C0098D46704700002DE9F0411F46044624
:1023700003260168072A01F4006004DB08B116A5F2
:1023800005E016A503E008B115A500E015A521F0AC
:1023900010002060A069C01EA0610FB1401EA061A6
:1023A0002046FEF704FB4FB1D4E90121384690479F
:1023B000206A401C2062C01C206206E0206AFAE706
:1023C000D4E9012115F8010B9047761EF8D220467A
:1023D000FEF703FBBDE8F0814E414E006E616E00DA
:1023E000494E4600696E66002DE9FF4F1F464FF0CB
:1023F0003C0987B04FF00042DDE9141001F10108FB
:10240000DDF858A002EA4050039000200590834672
:10241000054604460490B969461E08988847AAF103
:10242000010A0290BAF1000F3BDD02982E2815D068
:102430001021FEF76FFD00282EDB4FF0010B0599F0
:10244000014317D0B9F1000F0BDB4A46C11700F06A
:10245000FEF905430C43A9F1040905E001200490AD
:102460000BE008B145F0010501200590049820B962
:10247000361D02E0049800B1361FB969089808F1CA
:1024800001088847BBF1000FAAF1010A0290C9D0E8
:102490000999C1F80080C5E70298702808D0502833
:1024A00006D0F96908988847BBF1000F14D04FE0B7
:1024B000002002900120BBF1000F049009D0B969FF
:1024C000089808F101088847AAF10109B9F1000F3D
:1024D00007DCF969089888476FF001000BB0BDE888
:1024E000F08F2B2804D02D280CD14FF0FF30049012
:1024F000B969089808F101088847A9F10109B9F1FB
:10250000000FE6DD411CE4D00A21FEF703FD0028A0
:10251000DFDB029908F1010801EB810100EB4100CA
:102520000290B969089888470A21FEF7F3FC099AD6
:10253000A9F10109B9F1000FC2F8008001DD0028FE
:10254000E7DAF969089888470499029800FB016660
:1025500055EA040004D004F04041090002D006E02E
:10256000039898E0A40044EA9574AD00B61E04F008
:102570000041080002D16D196441761E159810F0D3
:10258000240F03D04FF00B095C4803E04FF02809FB
:102590006FF07D008246564507DAAAEB06018944B2
:1025A000B9F1410F01DD4FF0410901200021A9F1EE
:1025B000010200F04CF9024628400B462140084336
:1025C00001D0012100E00021501E029143F1FF31B2
:1025D00028402140084301D0012000E0002002995A
:1025E000834651EA0B014FD0002108464FF000000E
:1025F000039900F4400039B100EB80004FF4400132
:1026000000EBD07001EA60008015012802DD4FF078
:10261000FF3000E013D0401C36D0029860B3BBF10D
:10262000000F0CD14A460120002100F010F928408B
:102630002140084301D0012000E00020E0B101204A
:102640004A46002100F003F9034640190A46614159
:102650002D1A8C4111D3B9F1400F09DD159810F0F6
:10266000240F02D0AAF1340603E0AAF1170600E015
:10267000761C00254FF0004406E05B1E42F1FF325D
:1026800020EA030521EA0204CAF10100B04206DA99
:102690001B49039808430190002000900EE0039A24
:1026A000C4F3D321E80A0A43164940EA44500A43D6
:1026B0003146CDE90002684602F0FAFC159810F0A8
:1026C000240F0BD01598C00715D13868DDE900122A
:1026D000031D3B600068C0E900120CE002A86946D7
:1026E00002F080FC1598C00705D13868029A011DD8
:1026F0003960006802604046F0E6000002FCFFFF1F
:102700000000F07F0000F03F2DE9FF4F92461D468C
:1027100085B04FF00041DDE9124BDDE914727F1EF8
:1027200001EA4B50414940F0FF4940EA01080021CD
:1027300022F020004928049102D04E2828D04CE0F5
:102740003BA0012607C88DE80700A9690698641C0C
:1027500088477F1E014606D41DF8060018B121F0F7
:10276000200181420BD0E96906988847032E34D0B6
:10277000082E32D06FF0010009B0BDE8F08F761C52
:10278000032E01D0082EE0D1601CCAF80000DCE75F
:10279000A9690698641C88477F1E2AD420F020006F
:1027A000412826D1A9690698641C88477F1E20D439
:1027B00020F020004E281CD1A9690698641C884787
:1027C0007F1E48F4002849F48009CAF8004001D46B
:1027D000282806D0E969069888475FEACB7012D0AE
:1027E00022E0A9690698641C88477F1E01D400284E
:1027F00003DAE96906988847BCE72928F1D1641C07
:10280000CAF80040E9E71BF0240F07D028680499B4
:10281000031D2B600068C0E9001805E02868021D50
:102820002A600068C0F800902046A5E70000F07F0D
:10283000494E46494E4954590000000010B504461F
:10284000AFF300802046BDE81040FDF72EBDB2F189
:1028500020030AD5C2F1200301FA02F120FA03F3A2
:1028600000FA02F041EA0301704700FA03F14FF069
:102870000000704701491820ABBEFEE726000200A9
:1028800070475FEA400C08BF91F0000F4FEA8C23BD
:102890004FEAC12243EA51514FEA1C5018BF00F5DC
:1028A000F0404FEA300018BF41F000415FEA6C5C35
:1028B00000F02980BCF1FF3F08BF40F08040704726
:1028C000130C06BF12044FF0100C4FF0000C130E47
:1028D00004BF12020CF1080C130F04BF12010CF11B
:1028E000040C930F04BF92000CF1020CD30F04BF31
:1028F00052000CF1010C11464FF00002A0F11F0034
:10290000A0EB0C00704711F0004F08BF704731F08A
:1029100000413FF4D5AF0B0C06BF09044FF0100C7B
:102920004FF0000C0B0E04BF09020CF1080C0B0F4A
:1029300004BF09010CF1040C8B0F04BF89000CF1DA
:10294000020CCB0F04BF49000CF1010CCCF12003A9
:10295000A0EB0C0022FA03F302FA0CF241EA0301A5
:1029600000F10100704720F07F4C80EA030023F063
:102970007F47ACEB070303F57C5300F0004003F105
:10298000FF032DE980494FEA154B09B44FEA144380
:1029900025EA0B4E24EA03480FF2042606EB132720
:1029A00049083E785FEA320203FB0667C7F5000775
:1029B00007FB06F64FEA54374FEAD64606F1020601
:1029C00007FB066CCCF1005C4FEA1C472CEA074C75
:1029D00007FB06F40CFB06F504EB15464FEA9616CA
:1029E00034BF00204FF000404FEAD13706FB07FC10
:1029F0004FEA1C4C0CFB0BF7D21B03FB0CF761EBF3
:102A000007010CFB0EF7B0EB074072EB17420CFB13
:102A100008F734BFA2EB0742B2EB074261EB174164
:102A20004FEA0C444FEA910706FB07FC4FEA1C4CA7
:102A30000CFB0BF7B0EBC74072EB573203FB0CF704
:102A400034BFA2EBC742B2EBC74261EB57310CFB7C
:102A50000EF7B0EBC70072EB57720CFB08F734BFF0
:102A6000A2EBC702B2EBC70261EB5771039F4FEABB
:102A7000816141EA921104EBCC044FEAD1374FEA6D
:102A8000826206FB07FC42EA90124FEA80604FEA3E
:102A90001C4C0CFB0BF7D21B03FB0CF761EB070183
:102AA0000CFB0EF7B0EB074072EB17420CFB08F77C
:102AB00034BFA2EB0742B2EB074261EB17414FEA8A
:102AC0008C554FEA910704EB9C2406FB07FC4FEA68
:102AD0001C4C0CFB0BF7B0EBC74072EB573203FBFF
:102AE0000CF734BFA2EBC742B2EBC74261EB5731E0
:102AF0000CFB0EF7B0EBC70072EB57720CFB08F73C
:102B000034BFA2EBC702B2EBC70261EB577115EB02
:102B10004C254FEA816141EA92114FEA82624FEA05
:102B2000D13742EA901206FB07FC44F100044FEA59
:102B300080604FEA1C4C0CFB0BF7D21B03FB0CF71D
:102B400061EB07010CFB0EF7B0EB074072EB17428D
:102B50000CFB08F734BFA2EB0742B2EB074261EB74
:102B6000174115EB1C154FEA813141EA92414FEABA
:102B7000823242EA90424FEA80304FEA0C7644F1CA
:102B8000000448EA03434EEA0B484FF0000EB2EB54
:102B9000080C71EB030724BF624639464EEB0E0E5C
:102BA0004FF0000B0018524149414BEB0B0BB2EBBD
:102BB000080C71EB03077BF1000B24BF624639461A
:102BC0004EEB0E0E4FF0000B0018524149414BEBFB
:102BD0000B0BB2EB080C71EB03077BF1000B24BF6E
:102BE000624639464EEB0E0E51EA020718BF46F018
:102BF000010616EB0E7655F1000254F1000103D5E3
:102C0000BDE88901BDE80088BDE88901BDE800484C
:102C1000B619524141EB0101A3F1010370478080D5
:102C20007F7E7D7C7B7A7978777676757473727126
:102C300071706F6E6E6D6C6C6B6A6A6968686766DE
:102C400066656464636362616160605F5F5E5E5D70
:102C50005D5C5C5B5B5A5A595958585757565655E4
:102C600055555454535352525251515050504F4F46
:102C70004F4E4E4D4D4D4C4C4C4B4B4B4A4A4A4996
:102C800049494848484747474746464645454544D9
:102C90004444444343434342424242414141000091
:102CA00046EA0646A3F570534FEA164646EA4256F0
:102CB0004FEAD22242EA415210B54FEAD121A3F1A4
:102CC000010300F02FF820F0004000F1020C00F0AA
:102CD000004701EB00501146BCF5006F40EA0700C9
:102CE00000D210BDBAF1000F0AD01CB503B44FF0EA
:102CF00004004FF004014FF000000FBCBDE810408D
:102D00004FF00001BBF1010FB9BF04484FF0FF3194
:102D10000348002140EA070010BD00BFFFFFEF7F1E
:102D20000000F07F002B9C4630D477002BD01CB5E0
:102D30004FEA370703B44FF010004FF01001BAF11B
:102D4000000F06D0BCF1000FDCBF40F0080040F0DF
:102D500008014FF000000FBCBDE810400BF1010B63
:102D6000BBF1010F08BF5FEA170722BF12F1010292
:102D700011F101014FF0004143F1000300F0004068
:102D800043EA00007047F9D35708D0E746EA064601
:102D900013F1400F4FEA16461FDD13F1200FDFBF7E
:102DA00016430A46002120335B42BED0C3F1200700
:102DB00046EA064602FA07F74FEA164646EA0706CB
:102DC000C3F1200722FA03F201FA07F721FA03F10F
:102DD0004FF0000342EA0702A7E746EA020646EA86
:102DE00006464FEA164646EA0106BCBF46EA0646D4
:102DF000360C4FF000034FF000024FF0000194E753
:102E00002DE9804C9A46934670B491E8380007C883
:102E100031EA400C48BF34EA430C03D5FFF7A3FD69
:102E2000FFF780FFF0BCBDE8008C2DE9804C9A468E
:102E3000934670B491E8380007C831EA400C48BFA7
:102E400034EA430C03D5FFF78EFDFFF729FFF0BCF2
:102E5000BDE8008C2DE9804C9A46934670B491E809
:102E6000380007C810F0804F08BF13F0804F03D11F
:102E700000F01AF8FFF756FFF0BCBDE8008C2DE912
:102E8000804C9A46934670B491E8380007C810F019
:102E9000804F08BF13F0804F03D100F005F8FFF713
:102EA000FFFEF0BCBDE8008C20F07F4780EA030005
:102EB00023F07F4C07EB0C03A3F57C5300F000409C
:102EC000A3F1FE0392F0000F00F0B38095F0000F25
:102ED00000F077802DE901494FEA11404FEA14468E
:102EE00021EA004800FB06FC24EA064708FB06F638
:102EF00007FB08F800FB07F718EB06484CEB164CED
:102F00004FEA124B18EB07484FEA15464CEB1740B7
:102F100022EA0B4E0BFB06FC25EA06470EFB06F6E3
:102F200007FB0EFE0BFB07F71EEB064E4CEB164C99
:102F30004FF000061EEB074E4CEB174B18EB0B083F
:102F400040F1000018EB0E0B58EB000840F10000B8
:102F50008F1A4FF000013CBFC943661B14BFB5EB8D
:102F6000040C00213CBFC943F61B4FEA17444EEA4C
:102F70008E0E27EA04454FEA1C4704FB07622CEA41
:102F8000074C05FB07F70CFB05F604FB0CFC16EBE6
:102F9000074642EB174216EB0C4642EB1C421BEB7A
:102FA000060658EB0202414146EA9E0601D5BDE8FD
:102FB0000189B619524141EB0101A3F10103BDE8BA
:102FC00001894FEA14454FEA114724EA054621EAF0
:102FD000074C05FB07F406FB07F70CFB06F105FBA6
:102FE0000CFC11EB074144EB17444FEA124711EB7D
:102FF0000C4144EB1C4422EA074C05FB07F206FB9C
:1030000007F70CFB06F605FB0CFC16EB074642EB3C
:10301000174216EB0C4642EB1C456A1854F10001AE
:1030200048BF7047B619524141EB0101A3F10103BA
:10303000704795F0000F37D04FEA11424FEA14471E
:1030400021EA024624EA074C02FB07F106FB07F7D8
:103050000CFB06F402FB0CFC14EB074441EB17419C
:103060004FEA154714EB0C4441EB1C4125EA074C91
:1030700002FB07F506FB07F70CFB06F602FB0CFC50
:1030800016EB074645EB174516EB0C4645EB1C4285
:10309000121951F1000148BF7047B619524141EB76
:1030A0000101A3F1010370474FEA14454FEA1147AC
:1030B00024EA054621EA074C05FB07F106FB07F762
:1030C0000CFB06F24FF0000605FB0CFC12EB07426E
:1030D00041EB174112EB0C4251EB1C4148BF7047CA
:1030E000921841EB0101A3F10103704738B5054681
:1030F000002000904FF4704001F06EFC044640F652
:10310000FE70044044F4E044032D1ED005DC4DB1B4
:10311000012D08D0022D33D10EE0042D1ED0FF2D3D
:103120002ED124E02DE044F00400ADF8000002218F
:10313000684601F089FC24E044F00800ADF8000086
:103140000221684601F080FC1BE044F01000ADF85D
:1031500000000221684601F077FC12E044F02000F4
:10316000ADF800000221684601F06EFC09E044F071
:103170003C00ADF800000221684601F065FC00E06B
:1031800000BF00BF38BD000005E002200249086012
:10319000C00202490860F8E710140140100801401D
:1031A0007047704710B54FF4807002F031FB18B3D0
:1031B0001248006800F48070D0B911480078B8B99E
:1031C0000E48006800F4807090B90E4802F05AFE74
:1031D0000B4948800B4802F055FE0949498888424E
:1031E00006D1012006490870C00204490831086070
:1031F0004FF4807002F006FB10BD0000080801408B
:1032000008000020000C01402DE9F04F97B0044663
:103210008B4615461E460022664B2846314603F073
:103220000FFE074603F078FD80B21690C4EB041140
:10323000614800EBC10030F81B10169881420BD199
:10324000C4EB04125D4901EB021151F82B0004F0AC
:103250004DF817B0BDE8F08F4FFA8BF90BF1010074
:103260004FFA80FA03E0A9F101004FFA80F9B9F1B1
:10327000000F08DBC4EB0411504800EB011050F8BC
:1032800029000028EFD003E00AF101004FFA80FA8C
:10329000BAF13C0F08DAC4EB0411484800EB011006
:1032A00050F82A000028EFD0B9F1000F65DBBAF121
:1032B0003C0F62DAC4EB04123F4901EBC20131F862
:1032C000190003F06DFD07468846C4EB04123A4925
:1032D00001EBC20131F81A0003F062FDCDE91401DF
:1032E000C4EB0411354800EB011030F8290000B29E
:1032F0001390C4EB0411314800EB011030F82A00A0
:1033000000B21290DDE91212881A03F0EFFF11905B
:10331000119803F0BFFF3A464346CDE90801DDE9C5
:10332000140103F0CDFE0022224BCDE90401284612
:10333000314603F085FD3A464346CDE9000103F0EE
:10334000BFFECDE90201DDE9042303F021FBCDE955
:103350000601DDE9082303F073FDCDE90C011398A4
:1033600003F007FDCDE90A01DDE90C2303F054FA6F
:10337000CDE90E0103F01EFA6BE7B9F1000F09DB8E
:10338000C4EB04120D4901EB021151F8290003F0BE
:10339000ADFF5EE7BAF13C0F09DAC4EB041207494E
:1033A00001EB021151F82A0003F0A0FF51E70020C1
:1033B0004FE7000000408F4014040020540000201C
:1033C00070B504460D46002213462046294603F0F8
:1033D000FBFC01D2002425460022094B2046294649
:1033E00003F02CFE01D20024054D2046294603F0AF
:1033F00093FCC6B23C2E00DB3B26304670BD00007D
:1034000000004E4000BFFEE71648006800F00400D0
:10341000B0B91548008842F21071884221DA12488A
:103420000088401C104908800846008842F20E714E
:10343000884216D14FF480500A490831086010E0E4
:103440000948008800280CDD07480088401E06490E
:10345000088008460088012803D1000301490C3187
:103460000860704708080140020000202DE9F04F75
:1034700093B08346002012901090119000BF20213D
:1034800008A8FDF719FA0EA80CA90AAA08ABCDE9FD
:103490000032CDE9021012AB10AAF9A15846FCF790
:1034A000B5FFFE48808F129988427DDB10A802F09C
:1034B00021FCFBA110A8FDF727FA002875D1DDE952
:1034C00008211046FFF77CFF0790DDE908633246CC
:1034D00000200799FFF798FE0690069803F0DAFEA1
:1034E00006460022EF4B03F053FA04460D462246EF
:1034F0002B46DDE90861304603F0E2FD04460D4647
:103500000022E94B2046294603F09AFC0646002299
:10351000E64B03F03DFA04460D462046294603F0EB
:10352000FBFB1FFA80FA504603F03AFC8046224625
:103530002B4603F0B9FD06460022DD4B03F07EFD6D
:1035400007D20022DB4B2046294603F065F90446EA
:103550000D462046294603F0DFFB81B2D6480180A4
:103560000088C0F30B01D4480180008840F48050EB
:10357000D1490880DDE90A211046FFF721FF0790B5
:10358000DDE90A63324601200799FFF73DFE069008
:10359000069803F07FFE06460022C24B03F0F8F9BE
:1035A00004460D46224601E0B9E105E12B46DDE97E
:1035B0000A61304603F084FD04460D460022BA4BF2
:1035C0002046294603F03CFC06460022B74B03F098
:1035D000DFF904460D462046294603F09DFB1FFAFD
:1035E00080FA504603F0DCFB804622462B4603F06F
:1035F0005BFD06460022AE4B03F020FD07D2002201
:10360000AC4B2046294603F007F904460D462046F8
:10361000294603F081FBA849488008464088C0F34A
:103620000B0048800846408840F400504880DDE99F
:103630000C211046FFF7C4FE0790DDE90C6332460B
:1036400002200799FFF7E0FD0690069803F022FE9E
:1036500006460022934B03F09BF904460D46224692
:103660002B46DDE90C61304603F02AFD04460D4689
:1036700000228D4B2046294603F0E2FB064600223D
:103680008A4B03F085F904460D462046294603F08F
:1036900043FB1FFA80FA504603F082FB8046224625
:1036A0002B4603F001FD06460022814B03F0C6FCC9
:1036B00007D200227F4B2046294603F0ADF804468E
:1036C0000D462046294603F027FB7B4988800846A3
:1036D0008088C0F30B0088800846808840F4405002
:1036E0008880DDE90E211046FFF76AFE0790DDE9CC
:1036F0000E63324603200799FFF786FD0690069871
:1037000003F0C8FD06460022664B03F041F904466B
:103710000D4622462B46DDE90E61304603F0D0FC13
:1037200004460D460022604B2046294603F088FBE4
:10373000064600225D4B03F02BF904460D46204659
:10374000294603F0E9FA1FFA80FA504603F028FBF5
:10375000804622462B4603F0A7FC06460022544B27
:1037600003F06CFC07D20022524B2046294603F09E
:1037700053F804460D462046294603F0CDFA4E493B
:10378000C8800846C088C0F30B00C8800846C088BF
:1037900040F48040C88049491298487046491298C0
:1037A00008810421444801F04FF9584602F00EFD0B
:1037B00043A002F00BFDB8E043A110A8FDF7A4F868
:1037C00000285BD10690079012AA40A15846FCF74A
:1037D0001DFE3248808F1299884250DB129988B2C0
:1037E00006A902F097F9BDF81800C0F30B0A50467D
:1037F00003F0D6FA804600222C4B03F021FB06464C
:103800000022294B03F0C4F8CDE90801BDF81A00E5
:10381000C0F30B0A504603F0C3FA80460022234B44
:1038200003F00EFB064600221F4B03F0B1F8CDE972
:103830000A01BDF81C00C0F30B0A504603F0B0FAB1
:1038400006460022194B03F0FBFA80460022164B75
:1038500003F09EF8CDE90C01BDF81E00C0F30B0A81
:10386000504603F09DFA80460022104B03F0E8FA20
:10387000064600220C4B03F08BF82DE048E040E0B8
:10388000252A7320257320256420256C6620256C4D
:103890006620256C6620256C660000001400002060
:1038A00077000000006AF8400000B04000004E4081
:1038B0000000E03F0000F03F10060020080000205C
:1038C00020706173730D0A0072000000252A7320B6
:1038D000252A732025640000CDE90E01DDE90E01E3
:1038E000CDE90401DDE90C01CDE90201DDE90A01C0
:1038F000CDE90001DDE9086332460EA002F03CFD8F
:1039000005E0584602F062FC16A002F05FFC0CE0F5
:10391000584602F05BFC13A002F058FC05E0584644
:1039200002F054FC0FA002F051FC002013B0BDE8DF
:10393000F08F0000582B3A25302E336C662C20581F
:103940002D3A25302E336C662C20592B3A25302EFB
:10395000336C662C20592D3A25302E336C660D0AB7
:1039600000000000206661696C0D0A0005E002207D
:1039700002490860C00202490860F8E710140140DB
:1039800010080140704700002DE9F04F8BB08246CF
:1039900000200A900021089109910691079100BF2B
:1039A0000390049006A808A905AB0AAACDE9001067
:1039B000FCA15046FCF72AFD0AA802F09BF9FEA1E3
:1039C0000AA8FCF7A1FF00285FD10598002855DD63
:1039D0000598042852DC4FF48050ADF80C004000EC
:1039E000ADF80E004FF44050ADF810004FF4804099
:1039F000ADF812000022F14BDDE9080103F020FAD6
:103A000006460022EE4B02F0C3FFCDE90801DDE9D6
:103A1000080103F081F91FFA80FB584603F0C0F952
:103A20000646DDE9082303F03FFB80460022E54B14
:103A300003F004FB07D20022E34BDDE9080102F0AA
:103A4000EBFECDE90801DDE9080103F065F9C0F3FB
:103A50000B000599491E03AA32F811100843059975
:103A6000491E22F81100042103A800F0EDFF504682
:103A700002F0ACFBD5A002F0A9FB1BE2504602F01D
:103A8000A5FBD4A002F0A2FB14E2D4A10AA8FCF783
:103A90003BFF00284CD10598002842DD05980428FA
:103AA0003FDC0022C64BDDE9080103F08DF938D276
:103AB0000022CB4BDDE9060103F0C2F9064603F014
:103AC000FBF88046DDE9080103F026F9C1B205984C
:103AD000401EC0EB0012C34800EB021040F82180EA
:103AE0000022C14BDDE9080103F0AAF9064603F004
:103AF00013F986B2DDE9080103F00EF9C1B20598A9
:103B0000401EC0EB0012B94800EBC20020F8116063
:103B100000F0D8F9504602F059FBACA002F056FB79
:103B2000C8E1504602F052FBAAA002F04FFBC1E1EF
:103B3000AFA10AA8FCF7E8FEA0BB059800282ADD83
:103B40000598042827DC00229D4BDDE9080103F0DD
:103B50003BF920D20022A44BDDE9080103F070F903
:103B6000064603F0D9F886B2DDE9080103F0D4F87F
:103B7000C1B20598401EC0EB00129C4800EBC20089
:103B800020F8116000F09EF9504602F01FFB8FA054
:103B900002F01CFB8EE1504602F018FB8DA002F0F3
:103BA00015FB87E1FFE793A10AA8FCF7ADFE00280B
:103BB00059D1059800284FDD059805284CDA0022D8
:103BC0007F4BDDE9080103F0FFF845D2002640E015
:103BD0000598401EC0EB0011844800EBC10030F88E
:103BE000160070B30599491EC1EB01127D4901EB26
:103BF000021151F8260003F0BCF8CDE908010022BB
:103C0000774BDDE9080102F0C3FECDE90801059913
:103C1000491EC1EB0112754901EBC20131F81600D2
:103C200003F0BEF8CDE9060100226F4BDDE9060185
:103C300002F0AEFECDE90601DDE90801CDE90001A3
:103C400000E004E06CA005A90EC902F095FB701C11
:103C5000C6B23C2EBCDB2DE1504602F0B7FA5DA0A7
:103C600002F0B4FA26E16DA10AA8FCF74DFE60BB94
:103C70000598002822DD059805281FDA002014E0A9
:103C800000220599491EC1EB0113564901EB0311AE
:103C900041F820200599491EC1EB0113534901EB5E
:103CA000C30121F81020411CC8B23C28E8DB00F019
:103CB00009F95BA0059902F05FFBFBE0504602F0BA
:103CC00085FA44A002F082FAF4E05CA10AA8FCF7AD
:103CD0001BFEA0BB059800282ADD0598052827DAD9
:103CE0000022374BDDE9080103F06EF820D2DDE950
:103CF000080103F011F8C1B20598401EC0EB001294
:103D00003A4800EBC20030F81160304603F048F842
:103D1000CDE908010022344BDDE9080102F038FE4C
:103D2000CDE9080146A0DDE9082302F025FBC1E04A
:103D3000504602F04BFA27A002F048FABAE0FFE73B
:103D400042A10AA8FCF7E0FD50BB0598002828DD39
:103D50000598052825DA0022194BDDE9080103F052
:103D600033F81ED20022204BDDE9080103F068F889
:103D7000064602F0D1FF86B2DDE9080102F0CCFF71
:103D8000C1B20598401EC0EB0012184800EBC200FB
:103D900020F8116006A80FC803F092F9064657E014
:103DA00081E078E0252A7320257320256420256C86
:103DB0006620256C660000006F6400000000B040C3
:103DC00000004E400000E03F0000F03F20706173B3
:103DD000730D0A00206661696C0D0A00776B0000A4
:103DE000006AF8405400002000408F401404002076
:103DF000776C0000726B00000D0A6368203D20257F
:103E00006420206F6C203D2025302E336620206BEF
:103E1000203D2025302E356600000000636C6B00CD
:103E20000D0A4348202564206B20636C6561722075
:103E3000737563636573730D0A000000726C000094
:103E40000D0A25302E33660D0A0000006362000063
:103E500000221A4B02F0F4FF04460D462046294684
:103E600002F02AFF0646DDE9080102F055FFC1B263
:103E70000598401EC0EB0012114800EB021040F8FC
:103E8000216000F01FF8504602F0A0F9AFF2C40024
:103E900002F09CF90EE0504602F098F9AFF2CC0027
:103EA00002F094F906E0504602F090F9AFF2DC001F
:103EB00002F08CF900200BB0BDE8F08F006AF840EA
:103EC0005400002070B5364D01F094FE284601F0F4
:103ED0006BFE00BF33480178284601F087FD304D66
:103EE0000A35002408E02F48401C015D284601F0F7
:103EF0007DFD6D1C601C84B2192CF4DB284D283527
:103F0000002408E027481A30015D284601F06EFDC4
:103F10006D1C601C84B2112CF4DB214D3C35002457
:103F200008E020482B30015D284601F05FFD6D1C44
:103F3000601C84B2112CF4DB194D50351948818F67
:103F4000284601F075FD164D5A35002407E0164845
:103F5000015D284601F04AFD6D1C601C84B2182CDE
:103F6000F5DB0F4D52350F4890F83E10284601F012
:103F70003DFDF0220D490A48783001F069FE01F05C
:103F800079FD01F037FE0A4801F00EFEF0220549E6
:103F90004031074801F06FFE01F06CFD70BD00007C
:103FA00000E4010814000020F4050020140400209F
:103FB00000FC0108704700003EB5FF25002000907E
:103FC000019002906748006890F84100402812DB99
:103FD000402164480068401CFCF74CFC002061490B
:103FE000096881F841005F49096881F842005D492C
:103FF000096881F843005B4800680078012825D1F2
:1040000012E05849096891F843205649096891F827
:104010004310491C534B1B6883F8431051490968EE
:10402000491C885C02F0E8F84E48006890F84100AE
:104030004C49096891F843108842E2DC494800681D
:1040400090F8420010B148A002F0C0F8454800685E
:1040500090F84200002876DD4248006890F8410060
:10406000002872DD4FF400604049086000240DE034
:104070003C480068401C055D202D02D05F2D00D01B
:1040800005B905E00DF80450601CC4B20A2CEFDB42
:1040900000BF684601F02EFE002428E004EB440037
:1040A000334A52F820106846FCF72EFC08B9254622
:1040B0001FE0062C0BD104EB44002D4A52F82010CF
:1040C00003226846FCF714FB78B9254611E0072C5B
:1040D0000BD104EB4400264A52F820100422684613
:1040E000FCF706FB08B9254603E0601CC4B20C2CA3
:1040F000D4DB00BF0C2C09DB40211A480068401CAF
:10410000FCF7B8FB1BA002F061F811E0FF2D0FD007
:1041100005EB4500164A02EB800041681148006833
:10412000401C884740210F480068401CFCF7A2FB58
:1041300000200C49096881F841004FF400600B49E8
:10414000091D086004E00CE0FFE70FA002F03EF854
:1041500000200449096881F843000249096881F890
:1041600042003EBD040000200D0A0000100801407E
:10417000BC740008636F6D6D616E6420696C6C6562
:1041800067616C0D0A0000000D0A405F400D0A00D7
:1041900010B586B00446002005900490029003906C
:1041A00004AB02AA2BA12046FCF730F92BA104A8EE
:1041B000FCF7AAFB28B92A4841782AA002F0DCF8CB
:1041C00045E002A8FCF775FA06283AD302A801F0E8
:1041D00091FD05AA27A102A8FCF718F92748808FAE
:1041E0000599884229DB0020009001901C49059820
:1041F00048700020059017E019494878694601F099
:1042000089FCBDF8000040B9BDF8020028B9BDF82E
:10421000040010B9BDF8060018B10421684600F08A
:1042200013FC0598401C059005980428E4DB0C4815
:1042300041780CA002F0A0F809E011A001F0C6FF3F
:1042400005E0204601F0C2FF11A001F0BFFF0020F1
:1042500006B010BD25732025730000003F0000004C
:10426000080000200D0A4348414E3A253033640DC2
:104270000A0000002A737725640000001400002063
:104280000D0A4348414E3A6572720D0A0000000063
:10429000206661696C0D0A007FB505460024002088
:1042A0000290039027A12846FCF7F1F928B126488F
:1042B000417826A002F060F841E002AA26A1284633
:1042C000FCF7A4F802A8FCF7F4F9002831D002A802
:1042D000FCF7D0F904462548808FA04224DB00205B
:1042E0000090019018494C70002415E01649487858
:1042F000694601F00FFCBDF8000040B9BDF80200AE
:1043000028B9BDF8040010B9BDF8060018B10421A1
:10431000684600F099FB641C042CE7DB0A484178EE
:104320000AA002F029F80AE0214611A002F024F8C0
:1043300005E0284601F04AFF10A001F047FF0020E9
:1043400004B070BD3F00000008000020302C312C6C
:1043500025640D0A00000000252A7320252A5B5ED3
:104360002C5D2C255B5E27275D00000014000020DB
:10437000312C312C25640D0A000000002066616993
:104380006C0D0A002DE9F04188B007461C2101A8F8
:10439000FCF792FA1C2101A8FCF78EFA0026B04621
:1043A000002514E0BC5D5F2C01D0202C02D1681CDC
:1043B000C5B207E0002D05DD4046411C01F0FF08B5
:1043C00001A90C54012D00DD03E0701CC6B2002CC5
:1043D000E8D100BF01A801F08DFC2DA101A8FCF7D8
:1043E00093FA48B92BA001F0F1FE2B4801F0EEFE44
:1043F00028A001F0EBFE46E028A101A8FCF784FA12
:1044000000283AD11C2101A8FCF756FA0026B04634
:10441000002513E0BC5D5F2C01D0202C04D1022DBF
:1044200002DA681CC5B207E0012D05DD4046411CDB
:1044300001F0FF0801A90C54701CC6B2002CE9D190
:1044400001A8FCF736F9C5B2002D0FDD182D0DDAE5
:10445000192201A91048FCF7DBF9FFF733FD3846B4
:1044600001F0B4FE0EA001F0B1FE0CE0384601F000
:10447000ADFE0DA001F0AAFE05E0384601F0A6FE53
:1044800009A001F0A3FE002008B0BDE8F081000003
:104490003F0000000D0A0000F40500207700000036
:1044A00020706173730D0A00206661696C00000062
:1044B00030B58DB005460024302101A8FCF7FCF989
:1044C000302101A8FCF7F8F901AA29A12846FBF739
:1044D0009DFF01A801F00EFC27A101A8FCF714FA2A
:1044E00018B101A8FCF7E5F848B924A001F06EFE68
:1044F000234801F06BFE21A001F068FE35E021A108
:1045000001A8FCF701FA002829D1302101A8FCF705
:10451000D3F901AA1CA12846FBF778FF01A8FCF7F4
:10452000C8F80446002C13DD182C11DC192114489E
:10453000FCF7A0F9224601A91148FCF724F9FFF77E
:10454000C1FC284601F042FE13A001F03FFE0CE042
:10455000284601F03BFE12A001F038FE05E0284697
:1045600001F034FE0EA001F031FE00200DB030BD90
:10457000252A7320257300003F0000000D0A00006B
:104580001500002077000000252A7320252A7320BB
:10459000255B5E27275D000020706173730D0A00A4
:1045A000206661696C0D0A0030B58DB005460024A7
:1045B000302101A8FCF780F9302101A8FCF77CF933
:1045C00001AA29A12846FBF721FF01A801F092FBCF
:1045D00027A101A8FCF798F918B101A8FCF769F820
:1045E00048B924A001F0F2FD234801F0EFFD21A01D
:1045F00001F0ECFD35E021A101A8FCF785F90028C8
:1046000029D1302101A8FCF757F901AA1CA128469D
:10461000FBF7FCFE01A8FCF74CF80446002C13DD68
:10462000102C11DC11211448FCF724F9224601A9B1
:104630001148FCF7A8F8FFF745FC284601F0C6FD35
:1046400013A001F0C3FD0CE0284601F0BFFD12A04D
:1046500001F0BCFD05E0284601F0B8FD0EA001F018
:10466000B5FD00200DB030BD252A73202573000054
:104670003F0000000D0A00002E000020770000001F
:10468000252A7320252A7320255B5E27275D0000DD
:1046900020706173730D0A00206661696C0D0A0059
:1046A00030B58DB005460024302101A8FCF704F98F
:1046B00001AA29A12846FBF7A9FE01A801F01AFBCF
:1046C00027A101A8FCF720F918B101A8FBF7F1FF19
:1046D00048B924A001F07AFD234801F077FD21A01C
:1046E00001F074FD35E021A101A8FCF70DF90028C7
:1046F00029D1302101A8FCF7DFF801AA1CA1284626
:10470000FBF784FE01A8FBF7D4FF0446002C13DD61
:10471000102C11DC11211448FCF7ACF8224601A939
:104720001148FCF730F8FFF7CDFB284601F04EFDAD
:1047300013A001F04BFD0CE0284601F047FD12A04C
:1047400001F044FD05E0284601F040FD0EA001F017
:104750003DFD00200DB030BD252A732025730000DB
:104760003F0000000D0A00003F000020770000001D
:10477000252A7320252A7320255B5E27275D0000EC
:1047800020706173730D0A00206661696C0D0A0068
:104790007CB506460020019000906A462EA1304666
:1047A000FBF734FE684601F0A5FA2DA16846FCF738
:1047B000ABF828B92B48818F2BA001F0DDFD49E033
:1047C0002CA16846FCF7A0F800283DD101AA2AA137
:1047D0003046FBF71BFE0198FF282EDCFF250198D1
:1047E000C4B2002C01DD601EC4B21E490198888746
:1047F0000846808F002803DC002081F83E0013E08B
:10480000002001900CE004F0800018B1154880F8F9
:104810003E5008E06006040E6D100198401C0190A7
:1048200001980828EFDB00BFFFF74CFB304601F092
:10483000CDFC14A001F0CAFC0CE0304601F0C6FC2F
:1048400012A001F0C3FC05E0304601F0BFFC0FA050
:1048500001F0BCFC00207CBD252A732025730000DC
:104860003F000000140000200D0A6D6178202564CF
:104870000D0A000077000000252A7320252A7320E6
:104880002564000020706173730D0A002066616961
:104890006C0D0A0038B504466A4619A12046FBF79C
:1048A000B5FD009870B900201749096808701649CD
:1048B000096881F84300204601F088FC13A001F04C
:1048C00085FC1AE00098012811D10F490968087089
:1048D0000D48006890F841000B49096881F84300D1
:1048E000204601F073FC09A001F070FC05E02046B1
:1048F00001F06CFC07A001F069FC002038BD00004D
:10490000252A7320256400000400002020706173B4
:10491000730D0A00206661696C0D0A001FB5012144
:104920002A4800F089FD00208DF80C0028208DF821
:104930000D0008208DF80E0001208DF80F002020BA
:10494000029002A9224801F049FA28208DF80D00B2
:1049500000208DF80E004020029002A91C4801F0B2
:104960003DFA28208DF80D0008208DF80E008020DB
:10497000029002A9164801F031FA012113480A30C9
:1049800000F05AFD684601F047FC00208DF8000059
:1049900001208DF8010003208DF8020000208DF821
:1049A000030001208DF8040000208DF805008DF82B
:1049B000060001208DF807006946064801F04AFC10
:1049C0000121044801F033FC1FBD00000200180063
:1049D000000801400030014070B50546102017491D
:1049E0000860012000F021FE10201449091D086014
:1049F000134C06E00CB1641E03E04FF480500F49E5
:104A0000086002210F4801F01DFC0028F2D0294661
:104A10000C4801F015FC0A4C06E00CB1641E03E0E2
:104A20004FF48050054908600121064801F00AFC56
:104A30000028F2D0034801F0FFFB70BD10080140D0
:104A400040771B00003001402DE9F04106460F463B
:104A5000002535E010201C490860012000F0E5FD2C
:104A600010201949091D0860184C06E00CB1641E9D
:104A700003E04FF48050144908600221144801F00B
:104A8000E1FB0028F2D036F81510114801F0D8FBF0
:104A90000E4C06E00CB1641E03E04FF480500A494E
:104AA000086001210A4801F0CDFB0028F2D0084837
:104AB00001F0C2FB0446012000F0B7FD681CC5B23E
:104AC000BD42C7DBBDE8F0811008014040771B0004
:104AD00000300140704700001FB5044600200390DD
:104AE00001900290009001AB03AA59A12046FBF768
:104AF0008DFC03A801F0FEF801A801F0FBF857A116
:104B000003A8FBF701FF002876D155A101A8FBF708
:104B1000FBFE88B9534800F001FF30B9204601F090
:104B200055FB51A001F052FB8FE0204601F04EFBF7
:104B30004FA001F04BFB88E04FA101A8FBF7E4FE7A
:104B400000282ED16A464DA12046FBF75FFC009855
:104B5000052817D2DFE800F00304080D110011E06A
:104B600004204A4908600DE004204849091F0860F4
:104B700008E002204549086004E002204349091F7B
:104B8000086000BF00BF204601F020FB009800280D
:104B900003DD35A001F01AFB57E035A001F016FB4C
:104BA00053E03BA101A8FBF7AFFEE8B9002003905A
:104BB0006A4632A12046FBF729FC009800280CDD4C
:104BC0003449009881F83E00FFF77CF9204601F057
:104BD000FDFA25A001F0FAFA37E0204601F0F6FAD6
:104BE00023A001F0F3FA30E0204601F0EFFA20A014
:104BF00001F0ECFA29E0FFE727A103A8FBF784FE08
:104C0000E8B926A101A8FBF77FFE28B9244801884E
:104C100024A001F0B1FB18E01DA101A8FBF774FE70
:104C200030B91C4890F83E1021A001F0A5FB0CE023
:104C3000204601F0CBFA0EA001F0C8FA05E02046AC
:104C400001F0C4FA0AA001F0C1FA002004B010BDBE
:104C5000252A7320257320257300000077000000AB
:104C60006C7300001006002020706173730D0A0041
:104C7000206661696C0D0A0062730000252A7320AA
:104C8000252A7320252A732025640000140C014076
:104C90007070730014000020720000006563000053
:104CA000000000200D0A45432025640D0A00000085
:104CB000505053203078253032580D0A0000000043
:104CC0001FB53D480078012875D13B4840880390C6
:104CD00000200290BDF80C004109BDF8080061F306
:104CE00000000290BDF80C00010ABDF8080061F355
:104CF00041000290BDF80C008109BDF8080061F385
:104D000082000290BDF80C000109BDF8080061F3B3
:104D1000C3000290BDF80C00C108BDF8080061F3A3
:104D200004100290BDF80C00C109BDF8080061F341
:104D300045100290BDF80800204991F83E10084047
:104D40000290BDF808001D49898F884228DC0020A8
:104D500000900190BDF80800401C174948700024DD
:104D600016E015494878694600F0D4FEBDF8000009
:104D700040B9BDF8020028B9BDF8040010B9BDF86B
:104D8000060018B104216846FFF75EFE601C84B27D
:104D9000042CE6DB0848417809A001F0EDFA02E0B6
:104DA0000BA001F013FA4FF400600D4908600020D9
:104DB0000149087000BF1FBD08000020140000203A
:104DC0000D0A4348414E3A253033640D0A00000075
:104DD0000D0A4348414E3A6572720D0A0000000008
:104DE0001408014070B5042001F0DAFB1348006894
:104DF0000A22B0FBF2F1481EB0F1807F00D31BE025
:104E0000481E4FF0E022506150170F22002804DBAB
:104E100013071C0E0A4B1C5406E013071D0E094B0A
:104E200000F00F04241F1D5500BF00204FF0E022AA
:104E300090610720106100BF70BD000010000020CD
:104E400000E400E018ED00E00748006890F8440036
:104E5000002808DD0448006890F84400401E02491C
:104E6000096881F844007047040000202248C069A6
:104E700020F0805000F180501F49C8611F48007821
:104E800040F004001D49503981F850001A48C069AB
:104E900020F080501849C8610846006820F00100E1
:104EA000401C086000BF14480068C0F340000028A0
:104EB000F9D01148406820F003000F49486000BF56
:104EC0000D484068C0F381000028F9D10A48006805
:104ED0000B490840084908600020486041F61070FE
:104EE000C8624FF4801008634FF41F008860C80345
:104EF00004490860704700000010024050700040F4
:104F0000FFFFF2FE08ED00E010B520211B4801F084
:104F1000C1FB88B31948001D0068C4B20A201849B3
:104F2000096881F844000D2C01D00A2C09D11448DD
:104F3000006890F84200401C1149096881F842005D
:104F400016E00F48006890F84100402810DA0C483D
:104F5000006890F841100A48006890F84100401C31
:104F6000074A126882F8410005480068401C445412
:104F70002021024801F08BFB10BD000000380140E9
:104F80000400002005E0022002490860C002024936
:104F90000860F8E71014014010080140490050EA89
:104FA000C12018BF04204A0D18BF40F0010040F294
:104FB000FF72B2EB515F08BF40F00200012808BF4A
:104FC0000520704740F2013200204FF0E04102F02E
:104FD00029BA0000024A0020110702F023BA00009B
:104FE00001FDFFFF10B50446D1E9000100F002F811
:104FF000206010BDF8B504460D466A4600F04EFE2E
:1050000000987E30009000281EDC002213462046C7
:10501000294601F015FE17D0002140F608004FF098
:10502000000006462046294601F0C4FB044640F62F
:10503000080006EA00014FF0000034F0004004BF11
:105040000220FBF7AEFC29E00098FF2828DB0021B6
:1050500008464FF0000000F44006002213462046A8
:10506000294601F0EBFF8CBF002501250220FBF74C
:1050700098FC4FF0FF4446B1002D0CBF4FF40000E8
:105080004FF48000B04218BF084C042108464FF08E
:105090000000002D04BF84F00040F8BD2046F8BD9C
:1050A00020462946BDE8F84001F084BBFFFF7F7F22
:1050B00010B504460A46D4E90003194600F0BAFFC9
:1050C000C4E9000110BD30380A2801D20120704720
:1050D0000020704710B5102027490860022027499A
:1050E0000860142000F092FA04202449086064202B
:1050F00000F08CFA02202049091D086001201F4998
:10510000086008201C490860642000F07FFA012034
:105110001A49091D0860142000F078FA0820164981
:10512000091D0860642000F071FA08201249086027
:10513000642000F06BFA0020114908700846002135
:105140000160FF20FDF7D2FF642000F05FFA00202D
:105150000B49487048780B4900F0DCFC04210948F1
:10516000FFF772FC4FF400600349091D086006A0B8
:1051700001F02CF810BD000010080140100C014097
:105180000800002010060020496E697469616C20D7
:105190004F4B0D0A000000000349496860F30711F6
:1051A000014A5160704700000010024003494968FD
:1051B00060F30A21014A516070470000001002406C
:1051C0000349496860F3CD21014A516070470000EE
:1051D00000100240012807D10749496D21F0300134
:1051E0003031054A516505E00349496D21F0300130
:1051F000014A51657047000000100240052827D27F
:10520000DFE800F0030A11181F00134A126861F367
:105210000002114B1A601CE00F4A126861F3104241
:105220000D4B1A6015E00C4A126861F318620A4BC4
:105230001A600EE0084A126A61F30002064B1A6215
:1052400007E0054A526A61F30002034B5A6200E02C
:1052500000BF00BF70470000001002402DE9F04F72
:1052600085B004460025AA46AB460026A946002084
:10527000049003900290019000F0C0F90090009813
:1052800020B1012812D0022875D112E05648406D95
:10529000C0F3402038B15448006BC0F3406010B1F7
:1052A0005248206001E05248206067E0504820608A
:1052B00064E04D484068C0F3004B4B48C06AC00FE3
:1052C00030BB49484068C0F3834547484068C0F355
:1052D000417ABAF1000F01D10F2D04D14FEA0A1023
:1052E000401C054400E0AD1CBBF1000F03D1414858
:1052F000684320603DE03C484068C0F3404018B13E
:105300003C486843206034E039486843206030E01E
:105310003548C06AC0F3031003903348C06AC0F335
:10532000082002903048C06A00F007000190BBF1ED
:10533000000F02D12F48049009E02B484068C0F3C9
:10534000404010B12B48049001E02948049001210D
:10535000019801FA00F0039900FB01FC02990498FE
:10536000A0FB01700146624600233846FAF7C4FFED
:10537000206003E0FFE71E48206000BF00BF1A481E
:105380004068C0F303161C4810F80690206820FA05
:1053900009F0606014484068C0F30226174810F80E
:1053A0000690606820FA09F0E0600F484068C0F39A
:1053B000C226134810F80690606820FA09F0A06031
:1053C00009484068C0F3007607484068C0F3813060
:1053D00040EA86060B4810F80690A068B0FBF9F08A
:1053E000206105B0BDE8F08F00100240006CDC02C7
:1053F00000127A0000093D00507500086075000831
:10540000687500087075000810B501460020094B4A
:1054100003EB1142126801F01F040123A3401A405C
:1054200001F01F040123A3409A4200D000E00120B4
:1054300010BD00000010024010B501290DD10E4B27
:1054400003EB1042126800F01F040123A3401A432B
:10545000094C04EB10431A600CE0074B03EB1042BD
:10546000126800F01F040123A3409A43024C04EB8E
:1054700010431A6010BD00000010024030B5024613
:10548000002000233AB9324C646824F48034304D53
:105490006C60304819E02E4C646824F4803404F5C4
:1054A00080342B4D6C60012A06D12B482C46646851
:1054B00024F400346C6008E02648254C646824F429
:1054C000003404F50034224D6C60244CA04204D911
:1054D000234CA04201D2002326E0224CA04204D952
:1054E000214CA04201D201231EE0204CA04204D94D
:1054F0001F4CA04201D2022316E01D4CA04204D949
:105500001C4CA04201D203230EE01B4CA04204D944
:105510001A4CA04201D2042306E0184CA04203D941
:10552000174CA04200D20523094C646861F39544EE
:10553000074D6C600D09064C646865F35E74044D9C
:105540006C602C46E46A63F31A64EC6230BD0000C0
:105550000010024000093D0000127A0060823B000A
:10556000404B4C0080584F00105E5F009435770030
:10557000101B7F0020BCBE00286BEE0030D73D0121
:10558000D8E9DC011648006820F00100401C1449ED
:10559000086000BF12480068C0F340000028F9D03E
:1055A0000F48406820F003000D49486000BF0C48D8
:1055B0004068C0F381000028F9D109480068094912
:1055C0000840074908600020486041F61070C86232
:1055D0004FF4801008634FF41F008860704700008C
:1055E00000100240FFFFF2FE0349496860F3010129
:1055F000014A5160704700000010024002484068B4
:10560000C0F38100704700000010024007E045F23F
:10561000780100BF0A1EA1F1010399B2FAD1021E5E
:10562000A0F1010398B2F2D1704706E0122100BF49
:105630000A1EA1F10103D9B2FAD1021EA0F10100A4
:10564000F4D1704770B501225549564800F048FA28
:1056500053480078312859D0312051490870182119
:105660004F48401CFBF706F94D48401C4EA10A6804
:1056700002604A6842600A890281897A8172112136
:105680001930FBF7F7F846481A304AA10A68026059
:105690004A6842608968816011211130FBF7EAF89D
:1056A0003F492B3147A002680A6042684A6080681F
:1056B000886019214748FBF7FFF8142246A14548A6
:1056C000FBF7A6F80820364988870F2081F83E00AE
:1056D000002417E0002511E00021C4EB041230483B
:1056E000403000EB021040F82510C4EB04123F4894
:1056F00000EBC20020F81510681CC5B23C2DEBDB96
:10570000601CC4B2042CE5DBFEF7DCFB012224495B
:10571000244800F0E5F919212148401CFBF7AAF8BC
:1057200018221F49491C1F480A3000F0D9F91121DD
:105730001B481A30FBF79EF8102219491A311948F4
:10574000283000F0CDF9112115482B30FBF792F8E5
:10575000102213492B3113483C3000F0C1F90122CB
:105760000F493C310F48503000F0C6F901220C4976
:105770003E310C48523000F0B3F91822154909485F
:105780005A3000F0ADF9F02218490648783000F0A0
:10579000B3F9F02202494031154800F0F7F970BD25
:1057A0001400002000E401084F45204D454D5320D2
:1057B00031584E00504E3A3132333435363738395D
:1057C00000000000534E3A31323334353637383921
:1057D00000000000F40500205043423A43342D31CC
:1057E0003B5052473A5630312E340000140400200A
:1057F00000FC010800214172416001210172017029
:10580000704700000149086070470000140401401F
:10581000014600200022044B1B6803EA01020AB182
:10582000012000E0002070471404014001460020E0
:105830004868234A12688243214B1A601A1D126875
:1058400082431B1D1A604A7A0AB30A782AB91A1FC2
:10585000126802431B1F1A6006E0194A121D1268E3
:105860000243174B1B1D1A60154A08321268824307
:10587000134B08331A601A1D126882431B1D1A60ED
:105880000A7A2AB91A1F126802431B1F1A6016E00F
:105890000A7A012A07D10A4A0C3212680243084BDD
:1058A0000C331A600BE0064A083212680243044BBC
:1058B00008331A601A1D126802431B1D1A607047D4
:1058C000000401400EB501214FF4C010FFF7B4FDF4
:1058D00001211148FFF7B0FD0821002000F02CFA4B
:1058E0006846FFF787FF01208DF8090000208DF83A
:1058F00000004FF48070019001208DF80800684688
:10590000FFF794FF032000F04DFC00220121172037
:1059100000F0E4FB0EBD0000020018002DE9F04786
:1059200005464FF0000900F065F92C4800F03CF9FD
:1059300000262889802801DA294E06E02889FF28D8
:1059400003DC284E288980382881002E3FD000248F
:1059500009E056F82480214901EB8400414600F01B
:1059600055F9601C84B2FF2CF3DD304600F01CF9C1
:1059700028894FF6FF7101EAC007002424E0B7EB45
:10598000840F15D12988F01900F052F86988F219AE
:10599000901C00F04DF8A988F219101D00F048F88D
:1059A000E988F219901D00F043F8601C84B209E008
:1059B0000D4901EB8400D0F8008806EB84004146D5
:1059C00000F024F9601C84B2FF2CD8DD01E04FF018
:1059D000010900F04FF84846BDE8F08700E80108EB
:1059E00000EC010800F0010800E0010870B5044671
:1059F0000D4603264FF4801000F060F80646032E93
:105A000012D10A48006920F00100401C07490861D2
:105A100025704FF4801000F051F8064603480069E5
:105A200020F0010001490861304670BD00200240AD
:105A300070B504460D4603264FF4801000F03EF882
:105A40000646032E12D10A48006920F00100401CCE
:105A50000749086125804FF4801000F02FF80646B2
:105A60000348006920F0010001490861304670BD1B
:105A7000002002400348006920F080008030014986
:105A8000086170470020024003200B49C96801F0FB
:105A9000010109B100200EE00749C968C1F3800186
:105AA00009B1012007E00449C968C1F3001109B137
:105AB000022000E0032070470020024000B50246AB
:105AC0000323FFF7E1FF034603E0FFF7DDFF034693
:105AD000521E0BB9002AF8D102B90423184600BDA2
